:020000040800F2
:10000000F0FF0010E5F7050831D60008D9B704085D
:1000100085F8050885F8050885F805080000000042
:100020000000000000000000000000002DD60008C5
:1000300029D600080000000025D6000865790408CC
:1000400085F8050885F8050885F8050885F8050888
:1000500085F8050885F80508C9CD040891CD040880
:1000600059CD040821CD0408E9CC040825CC0508A5
:1000700015CC050805CC0508F5CB0508E1CB05082E
:10008000CDCB0508B9CB050885F8050885F8050826
:1000900085F8050885F8050885F80508B1CC040839
:1000A00065610408E56104085561040809620408F3
:1000B000D9610408C9610408B96104088DE805081C
:1000C00095E8050881E8050889E8050885F8050828
:1000D00085F80508417B040885F80508857A040839
:1000E00079CC040885F80508190901084561040858
:1000F000756104083561040899610408A5CB0508F9
:1001000085F8050885F80508A961040885F805083B
:1001100085F8050885F805086DB1030859B103088D
:1001200091CB05087DCB050869CB050855CB0508A3
:1001300041CB050885F8050885F8050885F8050808
:1001400085F8050885F8050885F8050809FC000804
:100150002DCB050819CB050805CB0508C97904087E
:1001600075E805087DE8050885F8050885F805089F
:1001700085F8050885F8050885F8050885F8050857
:0801800085F8050885F8050863
:082800000000000000000000D0
:108000002DE9F04700230F6801264FF0030C02E032
:108010000133102B41D006FA03F232EA0704F7D1FC
:10802000D0F800E05C000CFA04F52EEA050EC0F86A
:1080300000E091F80490D0F800A009FA04FE09F1DC
:10804000FF394EEA0A0EB9F1010FA846C0F800E068
:108050006FEA050515D8D0F808E005EA0E05856039
:108060004D79D0F808E0A54045EA0E0585604568E1
:1080700025EA020242608A7945689A4092B22A4310
:108080004260C26822EA0802C260CA79C568A2409A
:1080900001332A43102BC260BDD1BDE8F08700BF79
:1080A000074AD2E9003199421FBFD1180133097A3A
:1080B00001701DBFC3F30A03012013600020704745
:1080C00008190020044BD3E90030C01AC0F30A009D
:1080D000C0F50060704700BF08190020012380F838
:1080E0005130704707B501A8FFF7DAFF0028FAD032
:1080F0009DF8040003B05DF804FB034BD3E90030A6
:10810000C01AC0F30A007047081900200120704708
:10811000024BC3F80828C3F80C1870470819002050
:10812000024BC3F81028C3F8141870470819002030
:108130007047704730B4104DD5E900239A1AC2F346
:108140000A020A44B2F5006F11D899B101444A1EDF
:10815000013810F8014FE918824203F101030C7253
:10816000C3F30A03F5D16B60002030BC70470220D6
:1081700030BC70470846F8E70819002070B5144C69
:1081800094F81838002BFBD1F9B101444E1E451E5E
:1081900002E001203FF042FBD4F81C38D4F820283C
:1081A0000133C3F30A039342F3D0D4F81C28D4F864
:1081B0001C3815F8011F22440133C3F30A03B542EA
:1081C00082F82418C4F81C38E6D1002070BD00BF26
:1081D0000819002010B5094C54F8D43C0846114643
:1081E0005BB154F8D43C052B07D1002A54F8D03C9D
:1081F00003DDFFF7C3FF54F8D03C10BD002A002078
:1082000010B590F85010002380F8503081B10B4C1D
:1082100054F8D42C72B154F8D42C052A0CD13C302B
:1082200054F8D03CFFF7AAFF54F8D03C012010BD11
:108230000120FCE71046FAE71846F8E7002A00207C
:10824000002280F85120DBE790F85020531C0244B4
:10825000DBB280F8503082F83C1090F851200AB11F
:10826000132B00D9CCE77047212838B50C4605D030
:1082700022282FD0202813D0002038BD0029FBD081
:10828000072AF9D11A4B53F8CC0C13F8C81C13F871
:10829000C72C13F8C63C206021716271A371EBE713
:1082A0000029E9D0072AE7D1124AD2F80C381BB1CD
:1082B000D2F80808096898470D4B2568207961793C
:1082C000A27943F8CC5C03F8C80C03F8C71C03F888
:1082D000C62CD1E70029CFD0022ACDD1054AD2F849
:1082E0001438002BC8D00988D2F810089847C3E783
:1082F000002A002008190020024B002043F8D40C6B
:10830000704700BF002A0020054B064A00200521C7
:1083100042F8D41CC3F81408C3F80C08704700BF17
:1083200008190020002A0020704700BF704700BFD6
:10833000704700BF704700BF704700BF704700BF65
:10834000704700BF042301480B807047880100205C
:1083500010B4074A074B12F8C40C122403F114029C
:108360000C8001280CBF184610465DF8044B70477E
:10837000002A00208C01002010B40C4A12F8C03CE6
:1083800002EBC3010133DBB2042B4FF0050408BF3D
:1083900000234FF4045001F8BC4C02F8C03C41F8F3
:1083A000B80C5DF8044B4FF0FF307047002A0020F6
:1083B000202301480B807047B4010020642301484A
:1083C0000B807047D4010020432301480B80704785
:1083D0003802002010B5084CD4F8F400FF2808D06B
:1083E000064951F89C2C9839FFF73EFFFF23C4F84B
:1083F000F430002010BD00BF88010020002A0020BA
:10840000E8E700BF08B5D0F8E4355B6A984700207C
:1084100008BD00BF08B5D0F8E4351B6A98470020B6
:1084200008BD00BFD0F8E43510B504461B68984776
:10843000D4F8E8359B689847002010BD08B5D0F8FF
:10844000E435DB6903B19847002008BD08B5042274
:1084500090F81211D0F8E83580F8131180F8122145
:10846000DB689847002008BD10B5D0F8E835044611
:108470001B699847032384F81231002010BD00BF08
:108480000B0617D401EB810300EBC30310B400EB20
:1084900081000124002283F8764383F8741383F863
:1084A0007523426D5DF8044B136843F400130020FC
:1084B0001360704701F07F0101EB810300EBC30300
:1084C000012200EB810083F81C1183F81E2183F840
:1084D0001D2182691368002B01DA43F0804343F4C5
:1084E00000131360002070470B0630B41CD401EB5E
:1084F000810200EBC202002300EB810582F87413B5
:1085000082F8753301241A4604FA01F16D6D61F3A6
:108510001F4201696FF3CF332B60CB6923EA02035B
:10852000002030BCCB61704701F07F0101EB81047A
:1085300000EBC404012200EB8105002384F81C1128
:1085400084F81D2102FA01F11A46AD6961F30F02A8
:10855000DFE700BF10B581210446FFF7C5FF2046C5
:108560000121FFF7C1FF024B002003F8900C10BD62
:10857000002A002010B581210446FFF7B5FF2046F0
:108580000121FFF7B1FF82212046FFF7ADFFFFF782
:10859000B3FE002010BD00BF38B50D460446832150
:1085A000FFF7A2FF29462046FFF7E4FF002038BD71
:1085B000F0B416460A063AD401EB810500EBC50576
:1085C0002824002204FB0104022B85F87413C5F84B
:1085D0007C6385F8773385F8752304F55D7448D09E
:1085E000154600EB8107012202FA01F17F6D61F36C
:1085F0001F45D7F800C01CF4004F11D1E488204972
:1086000046F0805242F4004242EA834204F00F04F2
:108610001C4B42EA845211400CEA030319433960AF
:108620000269D3692B430020F0BCD361704701F08D
:108630007F0101EB810500EBC5052824012204FB25
:108640000104022B85F81C11C5F8246185F81F313F
:10865000A5F8221185F81D2104F58E740CD0002593
:1086600000EB8107012202FA01F1BF6961F30F05F6
:10867000BFE722711546B4E700252571F0E700BF7A
:10868000FF87CC13007833EC002310B5194604465D
:108690004022FFF78DFF8021204600234022FFF774
:1086A00087FFD4F8E835A078012284F812215B68AE
:1086B0009847002010BD00BF82B0002301680193DD
:1086C0000B6901930E4B03E00A690192013B13D041
:1086D000019A002AF8DA019A094B42F0010201924C
:1086E000019A0A610A69019203E00A690192013B59
:1086F00002D0019AD207F8D4002002B0704700BF20
:10870000400D0300436D064A1A61C278012A06D162
:1087100000F2CC5058614FF0802219681A607047FF
:108720001800086010B580210446FFF7A9FE204616
:108730000021FFF7A5FE2046BDE81040E2E700BF9C
:1087400070B44B78012B26D00B784A6900EB830379
:108750005C6D25682369D2B18A684A6102F07F02A4
:1087600023F4002323F07F0342F400221343236108
:10877000C378012B04BF0B696361C5F3076363F022
:108780007B0363F31F652560002070BC70478A6817
:1087900002F07F02E4E782694C691568136944B30B
:1087A0008E68B4428CBF06F07F0404F07F0423F48B
:1087B000002323F07F0344F4002443EA040388BF2A
:1087C0004E611361C378012B1DD0C5F3076464F0BB
:1087D0007B0464F31F651560002BD5D14B69002B1A
:1087E000D2D002690878516B012383400B43536355
:1087F000CAE723F4002323F07F0343F4002313612B
:10880000C378012BE1D10B780C6900EB8300C5F331
:108810000763816963F07B0363F31F654C6100208C
:10882000156070BC704700BF2DE9F0434B78012BF9
:1088300030D00B784C6900EB83035E6D3568376987
:108840001CB38B681C44013CB4FBF3F4C4F3090271
:1088500003FB02F3C3F312034B61144643EAC44320
:1088600063F31C073761C378012B04BF0B69736185
:10887000CB78012B44D0C5F3076363F07B0363F32C
:108880001F6535600020BDE8F0838A680124C2F3CB
:108890001203E3E791F800804E6900EB880EDEF8E2
:1088A00018C0DCF80050DCF8107076B3D1F80890EE
:1088B000384A06EB0904013CB4FBF9F402EAC4446B
:1088C000C6F312022243CC7807F060473A43012CEA
:1088D000174649D0CCF81020C278012A55D0026939
:1088E000516B03FA08F30B435363C5F3076363F05B
:1088F0007B0363F31F65CCF800500020BDE8F083D4
:108900004B7973B345F00055B5E707F0604747F47E
:108910000027CC78CCF81070C378012B2FD0012C15
:10892000E3D102699268D20554BF45F0005545F085
:108930008055C5F3076262F07B0262F31F65CCF8D5
:108940000050002B9ED1B0B203308010DEF8D04032
:1089500098D0CA6852F8041B216001339842F9D1BB
:1089600090E745F0805586E764F35E77CCF81070A9
:10897000C378012BD5D10A69CCF81420D1E70A6954
:10898000CCF81420012CB0D1CBE70B69CCF8143013
:10899000ABE700BF0000F81F38B501EB810400EB26
:1089A000C4040D46002184F87453C4F88C1384F871
:1089B0007513C4F88833C4F88023C3782821012BA9
:1089C00001FB050108BFEDB201F55D7108BFC4F8F8
:1089D00084231DB9FFF7B4FE002038BDFFF724FF44
:1089E000002038BD70B5104B53F8842C13F86C5C24
:1089F00004461AB113F8803C2B430DD08121204648
:108A0000FFF73EFD022D00D070BD2046074ABDE8AD
:108A100070401F230121BFE70121FFF731FD2046F0
:108A20008121BDE870402BE5002A00207429002038
:108A300010B501EB8101084A00EBC1010446B1F811
:108A40008C131046FFF776FB034A20464023012192
:108A5000FFF7A2FF002010BD98290020E8E700BF23
:108A600010B50223044640228121FFF7A1FD2046D4
:108A7000022340220121FFF79BFD82212046032390
:108A80000822FFF795FD064B02229A83FFF73CFC74
:108A9000044A204640230121FFF77EFF002010BD3D
:108AA000880100209829002038B509220D46044687
:108AB00003238321FFF77CFD29462046FFF7D0FFE3
:108AC000002038BD82B000230193019A094B42F087
:108AD00010020192C168019A0A610A69019203E0D9
:108AE0000A690192013B02D0019AD206F8D4002013
:108AF00002B07047400D030082B000230193019A39
:108B00000B4B42F020020192019A61F38A1201920A
:108B1000C168019A0A610A69019203E00A69019237
:108B2000013B02D0019A9206F8D4002002B07047AF
:108B3000400D030070B50446144EFFF70BFD2046B0
:108B4000022340228121FFF733FD402201212046EC
:108B50000223FFF72DFD56F8283C00251B6806F878
:108B6000905C284606F86C5C98472046FFF7AAFF01
:108B700020460121FFF7C0FF2046A6F18C021F23EB
:108B80000121FFF709FF284670BD00BF002A002021
:108B90000E4BDA68D20310D4DA68D1060FD4DA6843
:108BA000D20510D4DA6812F0E00F0AD1DB6813F0B6
:108BB000020F14BF082009207047012070470620CB
:108BC0007047072070470220704700BF003C0240FA
:108BD00000207047134A52F8240CC8B152F8203CC8
:108BE000B3B1884212D88B4234BF00230123DBB2D9
:108BF0005BB152F8183C42F81C1C99421FBF0A4B4B
:108C000042F8181C142083F8F80070470023EEE7A0
:108C1000A1F59C53083BB3F57A7F2CBF00230123B9
:108C2000E6E700BF002A002088010020064B13F869
:108C3000132C03F8141C8A421FBF044A03F8131CA8
:108C4000142082F8F8007047002A002088010020D4
:108C5000704730B1034B13F8120C012894BF002069
:108C600001207047002A002008B5FFF7F2FF60B12D
:108C7000064A12F8113C12F8142C5B0003F00203B0
:108C8000002A18BF43F001030B6008BD002A002032
:108C900008B5FFF7DEFF18B1024B53F8103C0B800C
:108CA00008BD00BF002A002070B5FFF7D2FF60B1F9
:108CB0000B4A32F80C5C3DB152F8086C0023B34209
:108CC0001C4603DB002000E00D7070BD02EB440485
:108CD000013334F8044CAC42DBB2F0D10B70F4E752
:108CE000002A002008B5FFF7B4FF10B100230B7075
:108CF000137008BD0420704728B1034B93F9FA00A4
:108D0000003818BF012070478801002008B5FFF720
:108D1000F3FF50B1054B93F9FA20012AC3BF93F832
:108D2000FD30C3F340030B60002008BD8801002024
:108D300008B5FFF7E1FF18B1024B93F8FC300B7058
:108D400008BD00BF8801002070B5FFF7D5FF38B11E
:108D50000D4C94F8FD30DB0703D500230B70137026
:108D600070BD0A4D94F9FB302E7B93FBF6F3013373
:108D70000B7094F9FB40297B94FBF1F301FB134347
:108D800001331370ECE700BF88010020002A0020A7
:108D90000320704770B5084A137C06255E1CB6FB9D
:108DA000F5F405FB1464557CAC421EBF02EBC30313
:108DB0001474C3E9050170BD002A0020002230B5FB
:108DC00004461046914200DC30BDA35C08255840A3
:108DD00010F0800F4FEA400318BF83F0D503013D28
:108DE000D8B2F5D10132EDE710B5D9B10E4B586CC0
:108DF000814217DCB2B1DB689A4213DC0B4C013ABA
:108E0000013903FB012184F8081104F58270052162
:108E1000FFF7D4FF062184F8090104F58270BDE84C
:108E20001040B7E710BD00BF002A002088010020D5
:108E3000124B30B49C6CFCB100220F2583F84E100D
:108E4000090A83F84D0083F84F101A655A659A6530
:108E500083F84C5003F14C00012110F8015F0131FF
:108E60002A440E29D2B2F8D183F85A202046044968
:108E700030BC10223FF0CCB830BC7047002A002034
:108E80004C2A0020024B002183F85C101966CFE7C2
:108E9000002A00202DE9F04FDFF878A3CF4FDFF84C
:108EA0007893554684460E4693460FCD3C462DEDAD
:108EB000068B0FC40FCD0FC495E807008BB099F84F
:108EC0006630CDF80CB084E80700CDE906C6042B67
:108ED00000F26981DFE813F0C70167016201050054
:108EE000D5019FEDBF8ADFEDBF8ABF49F961BF4958
:108EF000BF4BC04AB9610399002918BF134638EE29
:108F0000887AF5EE006A86EE87AABB4EDFF80CB3CE
:108F10007B620025DFEDB97A9FEDB99A28EE278AAA
:108F2000F0EE679A079BAB4200F032811BF8012BF1
:108F300009EB020393F86B40002C00F03981DFF855
:108F4000E0E2002102E0152900F0328101EB41004E
:108F50004B001EF800C0A44501F10101F3D14844C3
:108F600090F88910002900F07C812046CDE9042387
:108F70003DF054FBDDE9042380464046CDE904235F
:108F80003DF092FB0078002840F01281049A059B86
:108F900001324B44D2B2032183F8C92083F8C810B0
:108FA000B8F1000F00F004812309013B032B04F00A
:108FB0000F0E00F23B810AEB4300B0F82CC04CFAD4
:108FC0000EF010F0010000F03181012404FA0EF0DF
:108FD000013800EA0C00CDE9042356F035FA059B70
:108FE000DFF840C2049A5344032193F83430184404
:108FF0000CEBC00373619971DA715CF8300098F87A
:10900000082000F13F4101F57E010AEB912191F822
:10901000381001F01F0C4909032904FA0CF400F080
:109020000B81042900F01681022900F00C819B8835
:109030000893B3FA83F3C3F11F03C3F3CC0100EB2E
:10904000810103F007030C6A9B004FF00F0C0CFA30
:1090500003FC24EA0C040C620C6A02FA03F32343B7
:109060000B62022308A90993FEF7CAFF039B002B9A
:1090700000F0AB80B9F8643000EE103AB8EEC00AE8
:10908000FCEEC07A17EE901AD8F800305D4A934291
:1090900000F09880A2F58062934200F0938002F580
:1090A0008042934200F08E8002F58062934200F08D
:1090B000898002F58062934200F08480D9F87C2296
:1090C00050084FF6FF73B0FBF1F21A44120CB0FBDC
:1090D000F2F20398002800F0A780B2FBF1F18BB206
:1090E00099F8660004280BBF07EE901A07EE902A45
:1090F000F8EE677AF8EE676A05BF07EE102A67EEAA
:10910000A97A66EE887AF8EE476A29EE677A99F8C6
:10911000670006990091A8EEA67A01904146304674
:10912000C6ED027A86ED037A31F008FD002D7FDD71
:109130007368BA6B93427DD0012D79D03A6D93421A
:1091400078D0022D74D0BA6E934273D0032D6FD0B5
:10915000D7F8802093426DD0042D69D0D7F898209D
:10916000934267D0052D63D0D7F8B020934261D0E9
:10917000062D5DD0D7F8C820D31A18BF01230135BA
:109180000122082D3374727406F118067FF4CAAEFA
:1091900012480BB0BDEC068BBDE8F08F9FED1A8A2C
:1091A000F0EE488AA1E69FED198AF0EE488A9CE627
:1091B000174A104BFA6100207B620BB0BDEC068BA6
:1091C000BDE8F08FD9F87C027BE7B0EE4A0A57F091
:1091D00005F9FCEEC07A17EE901A55E7080000106A
:1091E000ACC5A737ACC5A73671410308454C040888
:1091F000653C0308394C04083C0000106F12833AA8
:1092000000007A4400040140282930386F120339E5
:109210005D3F0308A41B0608002A0020762A0020D0
:10922000882A0020F42A0020194659E770611DE7BA
:109230000123A4E70023A2E71349D1F840C044EA80
:109240000C040C64F3E61049D1F844C044EA0C0461
:109250004C64ECE60C49D1F830C044EA0C040C63D1
:10926000E5E6884689E69FED098A094BBB61002344
:10927000084A069301230393FA61074BF0EE488AEC
:109280003DE69FED068AF0E7003802406F12833A10
:10929000454C040871410308394C040800000000E3
:1092A000F8B50546262027F063F9144C014608BBA3
:1092B000D4F8800290F838301E3B012B02D894F885
:1092C0008D320BB13EF0D8FE0D4F0026AE4209DBC9
:1092D000B4F8AE320133A4F8AE3254F8D03CC4F83E
:1092E000C032F8BD17F8011BD4F880023EF0C4FE6E
:1092F0000136EBE7002384F8BC32EEE7002A0020B9
:109300008E2C002038B5124C637C227C9A4218D0F7
:1093100004EBC303D3E9052004F28E210023984215
:1093200010DC9378C4F8C4025B0884F8BC32FFF701
:10933000B7FF637C06210133B3FBF1F201FB12336B
:10934000637438BDD55C01F8015B0133E7E700BF0A
:10935000002A002013B504462620019127F008F9C1
:10936000019920B9204602B0BDE8104060E502B086
:1093700010BD07B50DF1060214F05EFF70B1094B88
:10938000BDF80620B3F8C81223F80C2C91421FBF79
:109390000549A3F8C822142081F8F80003B05DF84D
:1093A00004FB00BF002A00208801002013B50446FA
:1093B000FFF7A2FC08B300230DF106022046ADF82A
:1093C000063014F039FFC0B10D4C9DF8062094F919
:1093D000FA1084F80E21032908BF62F07F024FF0D3
:1093E0000501084808BF84F80E21FFF7E7FC0621B5
:1093F00084F80F010348FFF7CDFC02B010BD00BF99
:1094000088010020920200202DE9F743C14CA36C93
:109410000D4643B14FF0020800274FF00109A06C40
:109420003EF026FE60B9002614F8123C042B00F230
:109430006B81DFE813F09100EF0003015001590147
:10944000A06C3EF00DFE236E5A1C2344226683F866
:10945000CA0294F85C30012B09D0022B10D0002BEB
:1094600076D10F280CBF84F85C902366D7E7A0F173
:109470007203012B01D976286AD184F85C80CEE78B
:10948000102ACCD1A4490023012211F8010F013286
:1094900003440E2ADBB2F8D194F8D82284F85C7029
:1094A0009A422766BBD194F8D932002BB7D194F8F1
:1094B000CB62732E3FD0762E0FD0722EAFD194F8A0
:1094C000CD2294F8CC3253EA0223A8D044F8243CAD
:1094D000B4F8CE3244F8203CA6E794F8CD2294F8B4
:1094E000CC3253EA02239AD094F8CF1294F8CE22C9
:1094F00094F8D30244F8103C42EA012294F8D012C6
:1095000004F8111C94F8D11284F8DC1294F8D212E9
:10951000A4F8DA2241EA0021A4F8DE1254F81C1C57
:1095200009B944F81C3C34F80C3C002B7FF47CAFA8
:1095300024F80C2C78E794F8D12294F8D03243EA3E
:1095400002231AB2002B3FF46AAFA4F8E0226BE7C3
:1095500084F85C70276662E7722E4DD1012304F80F
:10956000123C002294F8E832402B36D134F80C0C2F
:10957000A4F8EE6294F8DC6214F8123CB4F8DAC293
:10958000A4F8EC320502330314F8141C54F8107CD0
:1095900005F4706503F440532B434FEA0C1543EA7E
:1095A0008133EDB22B4354F81C5C1BB2BD4214BF97
:1095B000082500251343604514BF042000202B43D9
:1095C0000343B14214BF022100211943534BA4F8B5
:1095D000F01293F8F830A4F8F232636C23B154F827
:1095E000083C002B40F0A4804D494E481F2203B098
:1095F000BDE8F04358F0C3BAD4F8E4324A4AEB1A53
:10960000934201DC0022ADE77220FFF73BFCC4F877
:10961000E452F7E7762E04D1022304F8123C00222C
:10962000A0E7D4F8E432404AEB1A9342EADD762010
:10963000FFF728FCC4F8E452002293E7374FD4F830
:10964000E43297F8F820EB1AB2B3374A934236DD8A
:1096500014F8112CD2071FD454F81C1C54F8102CE9
:1096600091420FD089B24620FFF774FE97F8F83088
:10967000C4F8E452013B87F8F830042304F8123CA4
:1096800001226FE734F80C1CB4F8DA228A4203D0C6
:109690005020FFF75FFEE9E714F8141C94F8DC2271
:1096A0008A4206D0B1FA81F149094920FFF752FEFA
:1096B000DCE7142287F8F8201C4A9342B7DC762EA8
:1096C000A0D17320FFF7DEFB032304F8123CC4F89B
:1096D000E452002246E7732E94D0D4F8E412124BE1
:1096E000691A994298DC8DE7D4F8E4320E4AEB1AF5
:1096F000934287DD7620FFF7C5FB022304F8123C76
:10970000C4F8E45200222DE7002304F8123C1A4664
:1097100028E700BF002A0020CA2C00208801002072
:10972000B0A70608980200203F0D03003F420F003B
:10973000334DD4F8F4622A2385F810310DF102027A
:1097400020230DF10101304685F8113114F005FE9A
:1097500030B19DF801109DF8027051EA070339D12C
:10976000552385F81231462385F81331202301A9AA
:10977000304685F8143114F0EAFD0346214813B150
:10978000BDF804209ABB204950F0EEFDB4F8DE721B
:109790001E4D87B30DF10301304614F0DBFD50B3CD
:1097A0009DF803100DF10602304614F045FD10B38C
:1097B000BDF8062016493B46BA420CBF20222A2299
:1097C000284650F0D1FDB4F8E032A4F8F83203B0E6
:1097D000BDE8F083304614F0A5FD394685F8120146
:1097E000304614F08BFD037885F81331BEE7094944
:1097F00050F0BAFDCAE70849284650F0B5FDE2E747
:10980000880100209D020020D2A70608A1020020A6
:10981000CAA7060883E90608D1A7060838B50B6869
:109820000E4D5A1C0A6005221A700B6895F8FA2032
:109830000C46591C21601A70236895F8FD20591CAC
:1098400021601A70B5F80011204650F039FC2368E9
:1098500095F80221591C21601A7038BD880100203A
:109860002DE9F0472DED028BFFF746FAC8B31E4BEA
:1098700093F9FA00012834DD93F82F411B4F9FED37
:109880001C8A15468E1E02EB44084FF032094545EE
:1098900004D1BDEC028B2046BDE8F08737F802AB5F
:1098A00026F802AF07EE90AAF8EEE70AB2EE040A35
:1098B00060EE880A56F0FCFEBCEEC00ABAF10E0F4C
:1098C00010EE103A9BB209D91933B3FBF9F39BB2EE
:1098D00003EB830303EB83035B009BB225F8023B9E
:1098E000D5E70024D5E700BF88010020FA2C00202E
:1098F000CDCCCC3D38B50D46FFF7FEF9044638B166
:109900000C4890F8FD30DB0704D5B0F8FE00288045
:10991000204638BD084A90F9FB30127B93FBF2F1E8
:1099200002FB11320132013100F5987014F098FCFD
:10993000EDE700BF88010020002A002000F01F0290
:1099400040090123032803FA02F304D004280CD0B1
:10995000022805D07047074A116C0B431364704707
:10996000044A516C0B4353647047024A116B0B431A
:10997000136370470038024000487047542B0020A2
:1099800000285FD00368374A2DE9F04103F13F44D6
:1099900004F57E0402EB9422012492F8382002F0B0
:1099A0001F055209032A04FA05F456D0042A4FD0A1
:1099B000022A48D08588B5FA85F0C0F11F00C0F3AF
:1099C000CC0603EB860600F0070082000F24306A05
:1099D000944020EA04003062306A01FA02F2024345
:1099E000002132624FF0010E0A464FF0030C0227AD
:1099F0000EFA02F838EA050002F101021CD11868DB
:109A00000CFA01F420EA04001860186807FA01F65D
:109A100006431E609E6826EA04069E609868986069
:109A2000586820EA0800586058685860D86820EAEA
:109A30000400D860D868D860102A01F10201D7D19B
:109A4000BDE8F0817047084A556C2C435464B1E777
:109A5000054A156B2C431463ACE7034A156C2C4381
:109A60001464A7E7A41B0608003802402DE9F0475C
:109A7000C94C94F80A130546C1F34001D4F8100309
:109A800041F088FE94F80A13D4F80C03C94301F09E
:109A9000010141F07FFE002D00F0E58005F1FF3867
:109AA000BE4EBF4D5FFA88F81027D4F8103333B19B
:109AB0001A689B8851690B4214BF53831383D4F8EF
:109AC0000C3333B11A689B8851690B4214BF53831E
:109AD0001383B4F81833002B40F0558194F81A130F
:109AE000D4F81C0341F056FE4FF0FA0C4FF47A7094
:109AF0004FF0010E7368C3F30803002B40F0178189
:109B0000EFF31183002B40F0128154F8D02CA96898
:109B100054F8D03C9A42F8D1D4F840339942F4D862
:109B2000D4F83C9300FB09F35B1AB3FBF9F300FB99
:109B300002327368C3F30803002B40F0B780EFF3E1
:109B40001183002B40F0B28054F8D03CD5F808A027
:109B500054F8D01C8B42F7D1D4F840138A45F3D87F
:109B6000D4F83C9300FB09F1A1EB0A01B1FBF9F138
:109B700000FB03139B1AB3F57A7FDAD3BCF1010C17
:109B8000B8D1D4F8103333B11A689B8851690B42AD
:109B900014BF53831383D4F80C3333B11A689B88F2
:109BA00051690B4214BF53831383B4F81833002B4D
:109BB00040F0DD8094F81A13D4F81C0381F0010101
:109BC00041F0E8FD4FF0FA0C4FF47A704FF0010EBF
:109BD0007368C3F30803002B40F08980EFF311830F
:109BE000002B40F0848054F8D02CA96854F8D03C65
:109BF0009A42F8D1D4F840339942F4D8D4F83C933F
:109C000000FB09F35B1AB3FBF9F300FB0232736844
:109C1000C3F308034BBBEFF3118333BB54F8D03CC1
:109C2000D5F808A054F8D01C8B42F7D1D4F84013D3
:109C30008A45F3D8D4F83C9300FB09F1A1EB0A0163
:109C4000B1FBF9F100FB03139B1AB3F57A7FDED366
:109C5000BCF1010CBCD108F1FF385FFA88F8B8F10B
:109C6000FF0F7FF422AFBDE8F087EFF3118987F390
:109C70001288D5F808A02B68DB0344BFC4F838E38A
:109C8000D5F808A054F8D03CD4F838135FFA89F915
:109C900089F31188D4F83C930B4400FB09F1A1EB44
:109CA0000A01B1FBF9F100FB0313CDE7EFF31189D2
:109CB00087F31288D5F808A02B68D90344BFC4F8ED
:109CC00038E3D5F808A054F8D03CD4F838135FFA3C
:109CD00089F989F31188D4F83C930B4400FB09F10E
:109CE000A1EB0A01B1FBF9F100FB031342E7EFF32B
:109CF000118187F31288D5F808902B68DA0344BFE6
:109D0000C4F838E3D5F8089054F8D03CD4F8382398
:109D1000C9B281F31188D4F83C131A4400FB01F353
:109D2000A3EB0903B3FBF1F300FB02326FE7EFF3A0
:109D3000118187F31288D5F808902B68DB0344BFA4
:109D4000C4F838E3D5F8089054F8D03CD4F8382358
:109D5000C9B281F31188D4F83C131A4400FB01F313
:109D6000A3EB0903B3FBF1F300FB0232E1E6D4F805
:109D70003433002B3FF426AFD4F8202300231360A4
:109D800084F831331EE7D4F83433002B3FF4ACAE03
:109D90003DF008FEA8E600BF002A002000ED00E02C
:109DA00010E000E02DE9F84FC44CC54F94F80A13B9
:109DB000D4F81003C34DC1F3400141F0EBFC94F81B
:109DC0000A13D4F80C03C94301F0010141F0E2FC8D
:109DD0004FF0050B4FF01008D4F8103333B11A6868
:109DE0009B8851690B4214BF53831383D4F80C33FF
:109DF00033B11A689B8851690B4214BF5383138394
:109E0000B4F81833002B40F0518194F81A13D4F8A9
:109E10001C0341F0BFFC4FF0320C4FF47A70012666
:109E20007B68C3F30803002B40F01481EFF3118328
:109E3000002B40F00F8154F8D02CA96854F8D03C86
:109E40009A42F8D1D4F840339942F4D8D4F83C93EC
:109E500000FB09F35B1AB3FBF9F300FB02327B68EA
:109E6000C3F30803002B40F0B480EFF31183002B01
:109E700040F0AF8054F8D03CD5F808A054F8D01C7E
:109E80008B42F7D1D4F840138A45F3D8D4F83C93E9
:109E900000FB09F1A1EB0A01B1FBF9F100FB03138F
:109EA0009B1AB3F57A7FDAD3BCF1010CB8D1D4F8A0
:109EB000103333B11A689B8851690B4214BF538326
:109EC0001383D4F80C3333B11A689B8851690B4261
:109ED00014BF53831383B4F81833002B40F0DA8097
:109EE00094F81A13D4F81C0381F0010141F052FCDC
:109EF0004FF0320C4FF47A7001267B68C3F30803ED
:109F0000002B40F08780EFF31183002B40F082801C
:109F100054F8D02CA96854F8D03C9A42F8D1D4F81F
:109F200040339942F4D8D4F83C9300FB09F35B1A10
:109F3000B3FBF9F300FB02327B68C3F308033BBBBE
:109F4000EFF3118323BB54F8D03CD5F808A054F8A4
:109F5000D01C8B42F7D1D4F840138A45F3D8D4F8FB
:109F60003C9300FB09F1A1EB0A01B1FBF9F100FB05
:109F700003139B1AB3F57A7FDED3BCF1010CBCD17D
:109F80000BF1FF3616F0FF0B7FF426AFBDE8F88F1C
:109F9000EFF3118988F31288D5F808A02B68DB034A
:109FA00044BFC4F83863D5F808A054F8D03CD4F8BE
:109FB00038135FFA89F989F31188D4F83C930B447C
:109FC00000FB09F1A1EB0A01B1FBF9F100FB03135E
:109FD000CFE7EFF3118988F31288D5F808A02B6832
:109FE000D90344BFC4F83863D5F808A054F8D03C6E
:109FF000D4F838135FFA89F989F31188D4F83C93BF
:10A000000B4400FB09F1A1EB0A01B1FBF9F100FBE4
:10A01000031345E7EFF3118188F31288D5F8089010
:10A020002B68DA0344BFC4F83863D5F8089054F8B5
:10A03000D03CD4F83823C9B281F31188D4F83C134A
:10A040001A4400FB01F3A3EB0903B3FBF1F300FB9C
:10A05000023271E7EFF3118188F31288D5F8089086
:10A060002B68DB0344BFC4F83863D5F8089054F874
:10A07000D03CD4F83823C9B281F31188D4F83C130A
:10A080001A4400FB01F3A3EB0903B3FBF1F300FB5C
:10A090000232E4E6D4F83433002B3FF429AFD4F88D
:10A0A00020230023136084F8313321E7D4F83433BC
:10A0B000002B3FF4B0AE3DF075FCACE6002A00206A
:10A0C00000ED00E010E000E010B4B8B10D4CD4F8A1
:10A0D0004433102B05D15DF8044B052100203CF0E2
:10A0E000FDBF03EB4302224482F8491301210B44D4
:10A0F00082F8480382F84A13C4F844335DF8044BED
:10A10000704700BF002A00202DE9F84F2E4F00EBCA
:10A11000800407EBC404D4F87C632EB1054694F8A0
:10A12000910300F0FF0820B14FF000084046BDE861
:10A13000F88F89469A4693463DF044FB4FEA490121
:10A140000123C9B284F8921384F893B384F8953349
:10A1500084F8968384F8943384F8913384F8908358
:10A16000B288C4F898A391058146C4F89CA31DD475
:10A170003388DA0510D442F20F7405E03DF022FB7B
:10A18000A0EB0903A34215DC33889B05F6D4338882
:10A190009BB243F480733380B3889BB243F4407323
:10A1A0004FF00108B3804046BDE8F88F984640461E
:10A1B000BDE8F88FB7F8F03301339BB22846A7F813
:10A1C000F03353F0CBFEB1E7002A002070B5464EC5
:10A1D00096F8F24304EB440306EBC303650093F8DF
:10A1E000F433032B6ED8DFE803F059291E0225440F
:10A1F00006EBC505D5F8F803002870D196F854345D
:10A200009C425FD0013404F00302934286F8F223AB
:10A2100058D002EB420406EBC4040223C4F8F8034E
:10A2200084F8F43370BD2B1906EBC303D3F8F8237D
:10A2300072B1013AC3F8F823002070BD2B1906EB68
:10A24000C303D3F8F823002AF3D1022283F8F423BE
:10A25000254406EBC50595F80034013BDBB285F8D3
:10A2600000348BBB214B96F85464D3F83411D5F8E5
:10A27000FC03621C02F003024B1E0324B24203449F
:10A2800085F8F443B3FBF1F0C5F8F8031AD099420E
:10A2900018D80138C5F8F803012070BD43F054FB0D
:10A2A00080B1124B2C44D3F8342106EBC4040121B5
:10A2B00002F51C5384F8F4130F33B3FBF2F3C4F824
:10A2C000F83370BD012070BD084BD3F83421012054
:10A2D00002F2E733B3FBF2F3C5F8F83370BD01388F
:10A2E000C5F8F803002070BD002A00208801002076
:10A2F0002DE9F04FB44CB54F95B0002305460E46FE
:10A300004FF4F072202104F58B60019584F85534E8
:10A3100084F8563457F0F5FB202104F5C7604FF45C
:10A32000F07257F0EEFBAA49B34632254FF0100CFD
:10A330004FF47A7001267B68C3F30803002B40F0CA
:10A34000BC80EFF31183002B40F0B78054F8D02C81
:10A35000D1F8088054F8D03C9A42F7D1D4F8403371
:10A360009845F3D8D4F83C9300FB09F3A3EB08031A
:10A37000B3FBF9F300FB02327B68C3F30803002B45
:10A380007AD1EFF31183002B76D154F8D03CD1F879
:10A3900008A054F8D08C4345F7D1D4F84083C24587
:10A3A000F3D8D4F83C9300FB09F8A8EB0A08B8FBF3
:10A3B000F9F800FB03839B1AB3F57A7FDCD3013DE8
:10A3C000B9D194F81928002A51D094F81A38013BD1
:10A3D000022B4CD803EB830004EBC0017D4D91F8B8
:10A3E000B47805EBC0004FF0010C022FC4F81C0834
:10A3F00084F8A4C800F0B882DBB204EB0313D3F8EE
:10A400002C39C1F8B83893B302234FF4807081F827
:10A41000B438A5F188034C3DA1F8C008C1F8CC3888
:10A42000C1F8D0581509013D032D02F00F0200F2CA
:10A430007E82694F07EB4503988D40FA02F3DB07F4
:10A4400040F17582012303FA02F2013A10403D44C3
:10A4500054F0FAFF95F83420604B104403EBC00031
:10A46000C4F824088379002B48D0412B46D06FF0E4
:10A47000010015B0BDE8F08FEFF311898CF312885D
:10A48000D1F808A00B68DB0344BFC4F83863D1F8E7
:10A4900008A054F8D03CD4F838835FFA89F989F3DE
:10A4A0001188D4F83C93434400FB09F8A8EB0A0850
:10A4B000B8FBF9F800FB03837DE7EFF311888CF319
:10A4C0001288D1F808900B68DA0344BFC4F83863E7
:10A4D000D1F8089054F8D03CD4F838235FFA88F8C3
:10A4E00088F31188D4F83C831A4400FB08F3A3EBEB
:10A4F0000903B3FBF8F300FB02323DE72323C380DB
:10A5000009213CF003FBD4F8243813B11A689B8866
:10A510001383D4F87C22324BB3EB920F80F02A8263
:10A52000B3EBD20F80F02882B3EB121F80F02882A9
:10A53000B3EB521F80F02882B3EB921F80F0288289
:10A54000B3EBD21F80F02882B3EB122F80F026826B
:10A550004FF4807200230DF10D01FF20A4F8202894
:10A560000122CDE90413CDE90833CDE90A33D4F84B
:10A570001C188DF80D000D9306928DF81C208DF897
:10A580003020EFF31180102383F31288D4F81C38A5
:10A590001B6A002B00F0CF81069B04AD2A461BB13D
:10A5A000D3691432002BFBD10B6A002B00F00A8216
:10A5B000996839B99A4218D0196899B15B68996855
:10A5C0000029F7D01433F3E7002A002000ED00E063
:10A5D00010E000E0B4320020A41B0608F42A00209A
:10A5E000404B4C00B44AC3E90025C0B280F3118847
:10A5F000D4F81C180B6A002BFCD18C220120CDE969
:10A6000008330DF10E080DF10F0A05938DF81C307B
:10A610000D93109312938DF80E2000230022CDE9A4
:10A620000E23CDF8108006900B908DF830008DF839
:10A630004400CDF828A0EFF31180102383F3128893
:10A64000D4F81C381B6A002B00F07E81069B2A463A
:10A650001BB1D3691432002BFBD10B6A002B00F025
:10A66000B181996839B993420AD0196829B15B68F8
:10A6700099680029F7D01433F3E78F4AC3E900251E
:10A68000C3B283F31188D4F81C28136A002BFCD1C1
:10A690009DF80F301B2B40F08781D4F8243801221D
:10A6A00084F855240BB12322DA80DFF80C92402283
:10A6B00048460A2142F05EFF8A21002301228DF8DC
:10A6C0000E1000200021CDE90E01CDE90833D4F8A9
:10A6D0001C18CDF81080CDF828A005938DF81C30FB
:10A6E0000D931093129306920B928DF830208DF8F3
:10A6F0004420EFF31180102383F31288D4F81C3820
:10A700001B6A002B00F02881069B2A461BB1D369E7
:10A710001432002BFBD10B6A002B00F0508199689A
:10A7200039B9934209D0196829B15B689968002941
:10A73000F7D01433F3E7C3E90095C3B283F311886C
:10A74000D4F81C28136A002BFCD19DF80F2094F834
:10A750001878C2F3801284F85C29002F00F0CB80B7
:10A76000022F00F0AF80D4F87C325449B1EB930F44
:10A7700080F01681B1EBD30F80F00081B1EB131F95
:10A7800080F00081B1EB531F80F00081B1EB931F8B
:10A7900080F00081B1EBD31F80F00481B1EB132F67
:10A7A00034BF4FF48077802794F8E812A4F85E79DC
:10A7B00018290ED14249A4F8ECB25B08B3FBF7F3B9
:10A7C000A1FB03135B0BA4F8EE22A4F8F072A4F82B
:10A7D000F2323948A4F820780222002142F0CAFE61
:10A7E000C8203CF0C3FDD4F81C084FF0800B0026B5
:10A7F000002700230122CDE90E67CDE908338DF84B
:10A800000EB0CDF81080CDF828A005938DF81C303F
:10A810000D931093129306920B928DF830208DF8C1
:10A820004420EFF31181102383F31288D4F81C38ED
:10A830001B6A002B37D0069B2A461BB1D369143202
:10A84000002BFBD1006A002800F0B68083683BB97A
:10A85000824209D003682BB140688368002BF7D08F
:10A860001430F3E7C0E90095C9B281F31188D4F838
:10A870001C08036A002BFCD19DF80F3013F0020373
:10A88000B7D1019841788278007884F86009C1F1E5
:10A890002001C2F11002184684F8611984F8622977
:10A8A00015B0BDE8F08F0562C9B281F31188024886
:10A8B00052F074FADBE700BF1C320020809698004B
:10A8C0005917B7D1D4F87C324049B1EB930FBFF49C
:10A8D0006BAFB1EBD30F51D2B1EB131F52D2B1EB2F
:10A8E000531F53D2B1EB931F54D2B1EBD31F34BFDC
:10A8F0008027402758E7D4F87C323549B1EB930FD5
:10A900004ED2B1EBD30F39D2B1EB131F3AD2B1EB28
:10A91000531F3BD2B1EB931F3CD2B1EBD31F41D2BB
:10A92000B1EB132F34BF4FF4807780273CE7002032
:10A93000C4F82408E4E504ADC0B20D6280F31188C8
:10A94000244852F02BFA53E60D62C3B283F3118808
:10A95000204852F023FA96E60D62C3B283F31188C1
:10A96000484652F01BFAEBE691F8C138634481F88F
:10A97000C13857E50222EDE50422EBE5042713E791
:10A980000822E7E508270FE71022E3E510270BE789
:10A990002022DFE5202707E74022DBE58022D9E5FA
:10A9A000022701E74027FFE6D4F8240820213CF0E5
:10A9B000ADF84FF0FF305CE5C0F80090FFDEC3F863
:10A9C0000090FFDE034A1A60FFDE00BF002D310158
:10A9D000404B4C001C320020F0B53B4CD4F864597D
:10A9E0002B78022B95B018D0012B02D0002015B087
:10A9F000F0BD95F904506B1CF8D0022DF6DC0091E7
:10AA0000134694F868190246284653F049FC00287A
:10AA1000ECD0284653F020FDE9E72B6A002BE5D166
:10AA20000DF10F0C8DF80F00002601200027CDE955
:10AA30000833CDE90A12CDE90E6705938DF81C3075
:10AA40000D9310931293CDF810C006908DF830003E
:10AA50008DF84400EFF31180102383F31288D4F8AB
:10AA600064391B6A13B3069B04AE32461BB1D3692B
:10AA70001432002BFBD12B6A13B3996839B9934276
:10AA80000AD0196829B15B6899680029F7D0143396
:10AA9000F3E70E4AC3E90026C0B280F31188D4F868
:10AAA0006429136A002BFCD10120A0E704ABC0B2DB
:10AAB0002B6280F3118804F6641052F06FF9EEE710
:10AAC000024A1A60FFDE00BF002A00206433002023
:10AAD00003681A78012A01BF93F90430054A03EB91
:10AAE000830302EBC30306BF93F89103C0B20020B7
:10AAF000704700BF002A002070B503681D78022D42
:10AB000015D0012D01D0002070BD044693F904003A
:10AB10000B4B421C83F8305AF5D00228F3DC0A466E
:10AB200003F523632179BDE87040FFF7EDBA1B6A96
:10AB3000002BE8D1012242F01DFD012070BD00BFB5
:10AB4000002A00200848002302461178022902F159
:10AB5000060204D00133062BF7D10020704703EB27
:10AB6000430300EB43007047343400202DE9F041EB
:10AB70007A4C82B0242204F63420002156F0C1FF22
:10AB800094F85D5A0023C4F8583A002D3CD1D4F80B
:10AB9000FC3A6BB39B6A5BB37148984783683BB3DD
:10ABA0000388DFF8D4C1013B9BB2604666460021B2
:10ABB0003778032F06F106061ED001310629F7D19A
:10ABC00000220178022900F1060000F084800132A1
:10ABD000062AF6D1D4F8581A052909D0481C02FBD8
:10ABE00001C2C4F8580A02200021938010705180DD
:10ABF000284602B0BDE8F081062303FB0141B1F80D
:10AC0000363A013B9BB2DBE794F85C0A04F6642316
:10AC1000C4F8603A08B90025B9E740F0DBFAC4F897
:10AC20006C0A18B183790BB1412BF4D129464D48F8
:10AC300042F09CFB05460028EDD0D4F8603A484A23
:10AC40009868C3F8942008B12023C38009213BF001
:10AC50005DFFD4F8603A444F986840F095FD434852
:10AC6000D4F8606A42F0B2FB0123B0803220C4F80D
:10AC70001C6B84F8203B3CF0D1FD042300260DEB37
:10AC80000302D4F8600A01969F2142F01FFC9DF850
:10AC900005009DF804209DF80630000240EA0240BD
:10ACA000184332460C2601E0884218D0D3B206FB86
:10ACB00003730132196C0029F6D194F85C0AA4F8E8
:10ACC000001BA4F80C1BC4F8041BC4F8081B0D4699
:10ACD00042F0B4F95BE7062101FB02C283E7B3F857
:10ACE0004A20B3F84870B3F844602149B3F84600ED
:10ACF000A4F80C2B120201FB00F04FF4807301FB4F
:10AD000006F14FF0000802FB07F6A4F8007BC4F838
:10AD1000042BC4F8086BC4F8300BC4F82C1B84F85F
:10AD20000E8BA4F8023B42F051FBD4F81C7BB6F129
:10AD3000807FB88006D80F4BC4F8FC3A012284F813
:10AD4000152B24E70123B72642463846694684F886
:10AD5000143B8DF8006042F063FCECE7002A002011
:10AD6000FC34002064340020A41B0608404B4C0037
:10AD700040420F00C81C06083434002099B10A6B09
:10AD8000824216D9154BD3F8642B914221D34C390A
:10AD900091421ED30B6B9842F9D38B6B9842F6D835
:10ADA0000B46184670470D4BD3F8641B0A6B904254
:10ADB00012D30B680BB9F4E70A6B90420B4602D32F
:10ADC0008A6B9042EDD951F84C3F002BF4D11846D4
:10ADD00070470023184670470A46D8E7002A00202B
:10ADE0002DE9F047CC0143D10346224A43F8082B12
:10ADF0004FF0FF324260022418467E26DFF878804A
:10AE0000D8F8689B2644013E051D49466FF07047FF
:10AE10004FF0010A08E0A3421CD0631C45F8043C33
:10AE2000321B1C460435CAB10B6BA34202D88B6B94
:10AE3000A34204D22046FFF7A1FF014690B10A7950
:10AE40004B6B002AE7D1A34204D0E6D245F8042C8C
:10AE5000631CE5E745F8047C631CE1E7C8F8681B60
:10AE6000BDE8F08745F804AC321B631C4946D8E7BF
:10AE70008026C3E7F8FFFF0F002A0020F0B40D681A
:10AE800000240CE0BCF1050F18D8A0F137030A2B01
:10AE900014D104EB840415F8010B03EB4404A0F176
:10AEA0003003DEB2092EA0F16107A0F1410CF0D908
:10AEB000052FE7D8A0F157030A2BEAD00D601460E4
:10AEC000F0BC704770B4447941BB03684FF4005242
:10AED0004FF40076202502213CBB1A8C22F001029F
:10AEE0001204120C1A841A8B188C22F0F30280B20E
:10AEF000120420F00A00120C014342F0010241F05A
:10AF000001011A8319841A8B22F00C021204120C0C
:10AF10001A831A8B92B270BC1A837047002203689E
:10AF2000164615461146002CD7D0042C21D0082CEB
:10AF300038D0198C21F480510904090C19849C8B98
:10AF40001D8C45F6FF7040F6FF412840214002432A
:10AF500042F4805241F4807199831A849A8B22F4CE
:10AF600040621204120C9A839A8B92B270BC9A833C
:10AF700070471A8C22F010021204120C1A84188BDB
:10AF8000198C89B240F6FF4221F0A00102400D4326
:10AF900042F4807245F010051A831D841A8B22F446
:10AFA0004062B3E71A8C22F480721204120C1A84E5
:10AFB000998B1A8C21F0F30192B2090422F42062D9
:10AFC000090C324342F4807241F0010199831A84E2
:10AFD0009A8B22F00C02C4E70B88F0B433BB028CCE
:10AFE0004C880E898B88C98822F001021204120C49
:10AFF0000284058B028CADB225F0F30592B22B438F
:10B0000022F00A0243EA061322439BB242F00102F5
:10B0100003830284038B23F00C031B041B0C0383A8
:10B02000038B9BB21943F0BC01837047042B048C43
:10B030002CD0082B4E888A880D89C98851D024F4D9
:10B0400080542404240C0484838B078C2C0344EA4E
:10B05000022440F6FF421A4045F6FF733B4043EAA4
:10B06000063322439BB292B243F48053828303841B
:10B07000828B22F440621204120C8283838B9BB277
:10B0800043EA01239BB2F0BC8383704724F0100491
:10B090002404240C4D880F898A88C9880484068B6F
:10B0A000038C12029BB242EA073423F0A00340F65D
:10B0B000FF42324043EA051322439BB292B243F06F
:10B0C000100302830384028B22F440621204120CE8
:10B0D0000283038B9BB243EA01239BB2F0BC038340
:10B0E000704724F480742404240C0484848B038C1F
:10B0F000A4B29BB224F0F30423F42063224343EA76
:10B10000062342EA05129BB243F4807392B2828313
:10B110000384838B23F00C031B041B0C8383838B1E
:10B120009BB21943F0BC8183704700BF036870B5C0
:10B130005E6A26B133460522BDE8704018470446D2
:10B140000D464E1D00E023689B6820469847002866
:10B15000F9D0236815F8011B1B6820469847B542B3
:10B16000F1D170BD0A44914217D010B40139541E78
:10B1700011F8013F08225840430010F0800F08BF2B
:10B18000400083F0D50314BFD8B2C0B2013AF3D166
:10B19000A142EDD15DF8044B704770472DE9F047AF
:10B1A000164D0746002095F9759B05F67C3684B050
:10B1B00007EB010805F61C6504464FF0B60A336834
:10B1C000ABB193F83830142B11D019F1020F01D024
:10B1D0004B450CD1002269463046CDE90244CDE909
:10B1E0000078ADF808A08DF80D4032F093FFE036FE
:10B1F000B542E4D104B0BDE8F08700BF002A0020CA
:10B20000094B93F86630042B08D9053B032B08D86B
:10B2100001231A4600B10370104670470023012233
:10B22000F8E700231A46F5E7002A00202DE9F04749
:10B230009AB0DDE9226ADDF8909004460D46174683
:10B24000984602E020683CF00BFF20683CF010FFBD
:10B250000028F7D10146642201A856F052FC254B84
:10B260008DF80450CDF85CA00293002D3ED0AB1EAB
:10B27000012B3DD9042D14BF00230323DFF878A050
:10B280008DF805305AF8D03C03961E440123CDE9D1
:10B29000059404968DF85B3037B14246394607A8CD
:10B2A00056F0CEFB8DF85A809AF85E6E0023189304
:10B2B000CEB99AF85D0E642202FB00A001A900F548
:10B2C000666056F0BDFB01238AF85D6E8AF85E3E2B
:10B2D000236843B143463A46294620461AB0BDE8A2
:10B2E000F04712F0F3B81AB0BDE8F0870523C5E7C0
:10B2F0000223C3E71C380020002A00209FED727A49
:10B3000007EE901A20EE070AF8EE677A27EE800A19
:10B31000FDEEC07A17EE903A2033402B00F2C48045
:10B32000DFED6A7AB4EEE70AF1EE10FAF0EE407A59
:10B330000CDD9FED676ADFED676AB0EE677AB4EE09
:10B34000E67AF1EE10FA77EEC67AF6DC9FED627AD5
:10B35000F4EEC77AF1EE10FA0CD59FED5D6ADFEDE1
:10B360005F6AB0EE677AB4EEE67AF1EE10FA77EE45
:10B37000867AF6D49FED5A7AF4EEC77AF1EE10FA97
:10B3800000F38A809FED577AF4EEC77AF1EE10FA57
:10B3900044BF9FED517A77EE677A27EEA76ADFED1B
:10B3A000525A9FED527ADFED526AA6EE257A67EE89
:10B3B000865AE6EE076AB6EE007AE5EEA67A27EE42
:10B3C000877ADFED476A70EE267ABDEEE76A16EE01
:10B3D000103A2033402B64D8B4EEE60AF1EE10FAAE
:10B3E0000CDDDFED3B5A9FED3B6AF0EE676AF4EE51
:10B3F000C66AF1EE10FA77EEE57AF6DCDFED366A32
:10B40000F4EEE67AF1EE10FA0CD5DFED315A9FED4D
:10B41000336AF0EE676AF4EEC66AF1EE10FA77EE80
:10B42000A57AF6D4DFED2E6AF4EEE67AF1EE10FAA4
:10B430003DDDDFED266A76EEE77A67EEA75A9FEDEF
:10B440002A5A9FED2A6ADFED2A6AA5EE856A27EE61
:10B45000A55AE5EE866AB8EE006AE5EE267A67EE52
:10B46000867AC7EE206AB7EE006A76EE865A76EEE6
:10B47000666A86EE257A80ED091A67EE277A66EE0F
:10B48000876AC0ED017AC0ED037A80ED007A80ED25
:10B49000027AC0ED046A70479FED0C7A77EE677A06
:10B4A0007BE7DFED147ADCE79FED127A89E7DFEDC9
:10B4B0000D6AF4EEE67AF1EE10FA44BFDFED066AAB
:10B4C00076EEE77AB9E700BF27D4D236DB0F4940E2
:10B4D000DB0FC940E4CB1641DB0F49C0E4CB16C1FA
:10B4E000DB0FC93FDB0FC9BF92E741B99730083C7A
:10B4F00015A82ABE000000002DE9F843E04FDFF850
:10B50000DCE3D7ED3E7A2DED028BF8EE670A9EF86C
:10B51000C84E07F26C63C3ED000A002C6ED1DFF851
:10B52000C0C397F87866C7F874469CF80040002EB0
:10B5300039D0BEF8CE3E9FEDD36A9FEDD37A07EEA9
:10B54000903AF8EE677A20EE877AC6EE276ACF4BFC
:10B550000022012E1A6076EE876AC7EE267AC3EDC6
:10B56000017A20D0022E9A60C3ED037A1BD0032EFD
:10B570001A61C3ED057A16D0042E9A61C3ED077ADD
:10B5800011D0052E1A62C3ED097A0CD0062E9A62EC
:10B59000C3ED0B7A07D0072E1A63C3ED0D7A02D0E4
:10B5A0009A63C3ED0F7A9EF886309FEDB96A9FEDDE
:10B5B000B97A9FEDB90AB94A07EE903AF8EEE77A00
:10B5C0009CF8583BC6EE276A1C4414FB06F6F6B2FC
:10B5D00007EE906A60EE870AF8EEE77AC2ED006A3D
:10B5E000A7EEA00A55F006F8BDEC028BFCEEC07A7F
:10B5F00017EE903A87F8C837BDE8F883BCEEE06AEA
:10B600009FEDA77A9EF8C93EBEF8CC2E9FEDA52AE5
:10B61000DFEDA56ADFF8C8C297F87866C7F874C688
:10B62000F8EE465A07EE903A87EE255A8CF800401D
:10B6300007EE102ABEF8CA2E8CED025A16EE103A0A
:10B64000F8EE677A06EE102AB8EEC77A27EE822A5D
:10B65000B8EE466A67EE266ACCF81430012322EE73
:10B66000252ACCED017A8CED036ACCED046A87F8CB
:10B670007036002E97D0DFED8D7A9FED8D4ADFED8D
:10B680008D5AC7EE871AC6EB0615A6EB06190CEB0A
:10B69000C5054FEAC9094FF00008B1EE611A9FEDE8
:10B6A000866A09EB05009FED853ADFED853ADFED0F
:10B6B000856A0346002207EE902AB8EEE77A27EE65
:10B6C000027AFDEEC77A17EE901A2031402900F277
:10B6D000D080B4EEC47AF1EE10FAF0EE477A0CDDC9
:10B6E000DFED794A9FED795AF0EE672AF4EEC52A2C
:10B6F000F1EE10FA77EEE47AF6DCF4EEE57AF1EEAC
:10B7000010FA0CD5DFED704A9FED715AF0EE672A02
:10B71000F4EEC52AF1EE10FA77EEA47AF6D4F4EE40
:10B72000C67AF1EE10FA40F39A8074EE677A27EE4B
:10B73000A75AB0EE630AA5EE030ADFED664AE5EE0E
:10B74000004A65EE272AB7EE005AE2EEA47AB0EE80
:10B75000458AF0EE454AA1EEA78AE1EE274AC5EEFA
:10B76000088A84EE880A77EE067ABDEEE75A15EE6F
:10B77000101A203140296FD8B4EEC67AF1EE10FAD3
:10B780000CDD9FED515A9FED517AF0EE674AF4EED1
:10B79000C74AF1EE10FA77EEC57AF6DCF4EEE57AF8
:10B7A000F1EE10FA0CD59FED485A9FED497AF0EE74
:10B7B000674AF4EEC74AF1EE10FA77EE857AF6D4CE
:10B7C000F4EEC67AF1EE10FA3CDD74EE677A27EEFD
:10B7D000A75AF0EE632AE5EE032A9FED3E7AA5EE26
:10B7E000227A65EE274AB8EE005AE4EE877A67EED1
:10B7F000857A87EE887A0132A24203F1280343ED6D
:10B80000048A03ED037A03ED017A43ED028A83EDA6
:10B81000000AC3ED056AC3ED026AC3ED016AC3ED18
:10B82000046AC3ED036AFFF646AF783085427FF4C1
:10B830003AAF08F57078B8F5346F05F570757FF498
:10B840002EAF76E69FED247AF4EEC77AF1EE10FA89
:10B8500048BF75EEE77ABAE7F0EE667AC9E79FED82
:10B860001E5AF4EEC57AF1EE10FA48BF75EEE77A8B
:10B870005DE7B7EE000AF0EE408AB0EE408A72E76C
:10B880000800001083F9223EBD378635D0380020ED
:10B89000555555406E12833A48E1FA3ECC070010E8
:10B8A0000060EA4827D4D2360AD7233C0000484239
:10B8B000DB0F4940DB0F49C0DB0FC93F92E741B9BD
:10B8C0009730083C00000000DB0FC940E4CB164174
:10B8D000E4CB16C115A82ABEDB0FC9BF002A002081
:10B8E0004C180010014488420ED010B40346074C97
:10B8F000074813F8012B04FB00F0994280EA02008C
:10B90000F7D15DF8044B704701487047930100017F
:10B91000C59D1C810C480D4BD0F8281F10B40C4C51
:10B92000C0F8183F8A1E2231B0F8463F1B01A4FB25
:10B9300003C3DB08A3F5B06322F8023F9142F3D1C1
:10B940005DF8044B704700BF002A00208D0D0208EF
:10B95000CDCCCCCC70B5084C251D2E4614F8010B6F
:10B9600032F0A6FD28B1037805F8013BB442F5D1C9
:10B9700070BDFF23F8E700BF6C3900202DE9F047C8
:10B980001D4F012607F10805B2464FF03C094FF064
:10B99000000817F8010B3FF01DFC044690B180F839
:10B9A0000690C671FB7803F07F02012A18D013F0CD
:10B9B000800F20460DD185F804803FF0DFFE85F82A
:10B9C00005802C600136052E05F10805E1D1BDE8A2
:10B9D000F08785F804A03FF0D7FE85F805A0F0E7D2
:10B9E0001B0605D4012120463BF090F8FB78DEE7EA
:10B9F0003FF0CAFEF6E700BF743900202DE9F04F92
:10BA0000DFF8EC91DFF8ECB185B0A9F6187309F115
:10BA10000C06A9F57A6A0393012419F8015B002D3D
:10BA200000F0C0804FEA151808F1FF38B8F1030F95
:10BA300005F00F0200F2B9800BEB4803988D40FA35
:10BA400002F717F0010700F0CB8001239340013B80
:10BA50001840D84453F0F8FC98F83430624F18443A
:10BA600007EBC00704237761FC71BB71002302E080
:10BA7000152B00F0978003EB43020399895CA942E0
:10BA80004FEA430803F10103F2D1524492F88910BE
:10BA9000002900F0A78028463AF0C0FD0546284658
:10BAA0003AF002FE0378002B7CD1D044042388F8BE
:10BAB000C94088F8C830002D74D0002F5AD03B6898
:10BAC000287A03F13F4202F57E020BEB922201211C
:10BAD00092F8382002F01F0C5209032A01FA0CF1E7
:10BAE0006ED0042A64D0022A72D0B7F804E0BEFAFD
:10BAF0008EF2C2F11F02C2F3CC0103EB810102F00E
:10BB000007020F6A92004FF00F0C0CFA02FC27EAB2
:10BB10000C070F620F6A90403843002208621146FA
:10BB2000012000FA01FC01443CEA0E001ED1186815
:10BB30000327974020EA07001860D3F8008002200E
:10BB4000904040EA08001860986820EA0700986072
:10BB500098689860586820EA0C00586058685860E7
:10BB6000D86820EA0700D860D868D860102902F1A8
:10BB70000202D5D1BAF89C1FBAF89E3F1B4A009129
:10BB8000002001340190B2FBF3F330469BB229460A
:10BB9000E4B22EF0D3FF0123092C737406F11806CA
:10BBA0007FF43BAF05B0BDE8F08F002777615DE71C
:10BBB000DFF844C0DCF830200A43CCF8302094E7AA
:10BBC000DFF834C0DCF840201143CCF840108CE79B
:10BBD000DFF824C0DCF844201143CCF8441084E79B
:10BBE000776143E70D465AE7F42A002040420F00F0
:10BBF000A0390020A41B0608003802402DE9F04FB0
:10BC000007EE900A2DED068B9FEDF07AF04BDFEDFD
:10BC1000F16A33F88C2CF04F13F8865CC7F8D857CC
:10BC2000B8EE679A0AEE102A87EE095A33F88A2C82
:10BC3000C7F81C0883B0DFF8E4A308EE102A33F835
:10BC4000882CDFEDE67ADFEDE63ADFEDE64A9FEDA0
:10BC5000E66AB8EE4AAA08EE902A3AEE0A7AB8EEF8
:10BC6000C88AF8EEE88AB4EEC78A68EEA77AF1EEE1
:10BC700010FAB4EEE65A07F2CC73B8BFB0EE478ABA
:10BC8000F1EE10FAC3ED007A58BF07EE905AF6EEC7
:10BC9000005A58BFF8EEE77A65EE256A5CBFB7EE4A
:10BCA000007AC7EE279A4FF0000244BFC7F8D827A2
:10BCB0001546C7F8DC279AF8982086EE887AF7EEC2
:10BCC000007AB4EEE77A48BFDFEDC89A83ED028AC6
:10BCD000F1EE10FAB8BFB0EE677ABDEEC77AB0EEFB
:10BCE000004A17EE106AB8EEC77A83ED01AAC5EED6
:10BCF000076ABF4BC7F8786A194614319C46019110
:10BD000003F12C0487EE875A66EEA36AACEC015A65
:10BD10008AEE267AC8EE267A37EE257A77EEA57A6D
:10BD2000B4EEC47AF1EE10FAB8BFB0EE447AF4EE95
:10BD3000E47AF1EE10FABDEEC77A88BFF0EE647ACD
:10BD400017EE100AFDEEE77A00F1FF3B17EE901AAE
:10BD5000BBF1230FA8BF4FF0230BCCED006A012EDF
:10BD600001F1010CB8BF0126BCF1230F2BEAEB7BDC
:10BD7000E04629EE066AA8BF4FF02308E345C8BF96
:10BD8000D846C7F8840AC7F8881AD3ED05AA83ED08
:10BD9000046AA8EB0B0797FBF6F70137002A40F07F
:10BDA000E380DFED940ADFED9E5A9FED9E2A9FED22
:10BDB000925ADFEDA02A9FEDA03ADFEDA03A9FED69
:10BDC0008F4ADFED9F1A0AF19C0107EE902AB8EE28
:10BDD000E76A66EE207A37EEA57AFDEEC76A16EEC0
:10BDE000903A2033402B00F21682F3EE026AB4EE52
:10BDF000E66AF1EE10FA0CDDDFED8C4ADFED8A6ABF
:10BE0000B0EE471AB4EEE61AF1EE10FA37EE647AA5
:10BE1000F6DCB4EEC57AF1EE10FA0CD5DFED834A0C
:10BE2000DFED836AB0EE471AB4EEE61AF1EE10FACF
:10BE300037EE247AF6D4B4EEE57AF1EE10FA40F358
:10BE4000ED81DFED6F6A36EEC77A67EE076AB0EE16
:10BE5000431AA6EEA21AB0EE630AA1EE260A67EE16
:10BE6000264AA4EE807A27EE047AFDEEE76A16EE03
:10BE7000903A2033402B00F2CB81DFED626AB4EEC2
:10BE8000E66AF1EE10FA40F3F7819FED680A9FED44
:10BE9000661AF0EE676AF0EE664AF4EEC14AF1EE19
:10BEA00010FA76EEC06AF6DC9FED551AF4EEC14A40
:10BEB000F1EE10FA13D59FED5D1ADFED5D4AB0EE9D
:10BEC000660AB4EEE40AF1EE10FA76EE816AF6D470
:10BED000DFED4C6AB4EEE66AF1EE10FA0CDD9FED90
:10BEE000536ADFED516AF0EE674AF4EEE64AF1EE8E
:10BEF00010FA77EEC67AF6DCF4EEC57AF1EE10FAB7
:10BF00000CD59FED4A6ADFED4A6AF0EE674AF4EE1F
:10BF1000E64AF1EE10FA77EE867AF6D4F4EEE57A98
:10BF2000F1EE10FA40F38281DFED356A76EEE77AC2
:10BF300067EEA76AF0EE434AE6EEA24AB0EE631A55
:10BF4000A4EEA61A27EEA66AE6EE017A67EE847AD8
:10BF50000132242A81ED007AC1ED017A01F1080154
:10BF60007FF433AFDFED28AA4FF0000944E9059BC9
:10BF700044E902764FF490720021204644F80C8C7C
:10BF800055F0BFFD4FF49072A018002155F0B9FD97
:10BF90001E4B04F51574A342E8D1019BDFED1C7A1A
:10BFA000C3ED00AA012329EE279A8AF89830002DC4
:10BFB00000F02981DFED177A174E9FED112ADFED92
:10BFC0000E2AC7EEA81AA6F114043DE00024744915
:10BFD000F83A00200000FA44080000100AD7233C79
:10BFE000398E633C00000C429C5349370000807F2F
:10BFF000840A0010C3B8B23DDB0F49C072F97F3F1D
:10C00000DB0F494000001042BC297E3FAC110010FC
:10C0100027D4D23600004842E80700100011001073
:10C02000DB0FC93F00000000E4CB1641DB0FC94025
:10C03000E4CB16C192E741B99730083C15A82ABE57
:10C04000DB0FC9BF000010C206F5117738EE4A8A2F
:10C05000B1EE611A69EE889A5FED0F5A5FED0F6AD3
:10C06000234630460022B7EE005A07EE902AF8EE3B
:10C07000E77AB6EE007A77EE877AB0EE4A7AA7EEE4
:10C08000A97AF0EE477A29EE077AE0EC017AFDEE24
:10C09000C77A17EE901A2031402900F2D280B4EE10
:10C0A000C27AF1EE10FAF0EE477A0CDD1FED214A6C
:10C0B0005FED234AB0EE676AB4EEE46AF1EE10FA7F
:10C0C00077EEC47AF6DCF4EEE27AF1EE10FA0CD5F3
:10C0D0001FED2A4A5FED2A4AB0EE676AB4EEE46AC1
:10C0E000F1EE10FA77EE847AF6D4F4EEE57AF1EE1A
:10C0F00010FA40F3B78072EE677A67EEA74A5FEDF9
:10C10000333A1FED334A1FED336AA4EEA34A67EEBC
:10C11000A43AA4EE246AF0EE454AE3EE867AB0EE45
:10C12000456AE1EE274AA1EEA76A84EE864AC5EE8B
:10C13000064A77EE257AFDEEE73A13EE901A2031A3
:10C1400040297BD8B4EEE57AF1EE10FA0CDD1FED54
:10C15000493A5FED4B3AB0EE677AB4EEE37AF1EE2E
:10C1600010FA77EEC37AF6DCF4EEE27AF1EE10FA2A
:10C170000CD51FED523A5FED523AB0EE677AB4EE4D
:10C18000E37AF1EE10FA77EE837AF6D4F4EEE57AFC
:10C19000F1EE10FA5CDD72EE677A27EEA73A5FEDFA
:10C1A0005B0A5FED5B3A1FED5B7AE3EE203A63EEEC
:10C1B000270AA3EE237AF8EE003AE0EE877A67EEDC
:10C1C000A37A87EE867A0132AA4203F12803C3EDEF
:10C1D0000B4A83ED0C7A83ED0E7AC3ED0D4A83EDA5
:10C1E0000F4A83ED145AC3ED116AC3ED106AC3ED13
:10C1F000136AC3ED126A7FF438AFC834A74206F160
:10C2000014067FF429AF03B0BDEC068BBDE8F08FB8
:10C21000F0EE427A9CE6B0EE427A26E6B4EEE17A9F
:10C22000F1EE10FA48BF35EE477A0EE6F4EEE17A09
:10C23000F1EE10FA48BF75EE677A79E6F0EE667AAD
:10C24000BFE7B7EE004AF0EE444AB0EE446A70E74A
:10C250001FED857AF4EEC77AF1EE10FA48BF72EE60
:10C26000E77A9AE71FED8A6AF4EEC67AF1EE10FAE1
:10C2700048BF72EEE77A40E75FED8E6AB4EEE66A99
:10C28000F1EE10FA48BFF0EE676A3FF514AE33E600
:10C290002DE9F041204E214F16F8813C87F80A33F2
:10C2A000843E07F5437500244FF0050816F8010B8E
:10C2B00020BB28600134032C05F10405F6D197F862
:10C2C0000A13D7F80C03C94301F001013FF062FAE9
:10C2D00097F80A13D7F8100381F00201C1F3400167
:10C2E0003FF058FA97F80A13D7F8140381F00401C5
:10C2F000BDE8F041C1F380013FF04CBA3EF06AFF67
:10C30000013401212860E3B210B180F80680C371C6
:10C3100028683AF0FBFBCEE7F83A0020002A00201C
:10C320002DE9F0412A4C2B4D34F87C6CA5F81863AC
:10C3300082B0EEB914F8800C3EF04CFF14F87F2C5C
:10C34000C5F81C03003A18BF012285F81A2348B12A
:10C3500014F87E1C2B22002914BF11210121C28058
:10C360003AF0D4FB002002B0BDE8F04140F046BCFA
:10C3700014F8808C002240462B213AF0CBF9074676
:10C3800040463EF027FFF8B1F7B12B22C5F8340341
:10C39000C280397AFDF7F4FA4FF000080E4AB2FB7A
:10C3A000F6F3C3F34F0000909BB23946CDF80480FA
:10C3B00005F5487024F87A6C2EF0C0FBD5F82033D0
:10C3C000C3F8008085F8318302B0BDE8F08100BF7A
:10C3D000F83A0020002A002040420F002DE9F84FD3
:10C3E000244C14F86C3C04F8783CA4F17507002642
:10C3F000583C5FFA86FB0BF101085FFA88F80121CF
:10C4000017F8010F42460E448A463AF083F94FF07E
:10C410000009054640B3387804F80E9C04F80D9CDA
:10C4200004F80FBC04F810AC44F8045C3EF0D2FEF3
:10C4300018B180F806A080F80780297AFDF7A0FAE5
:10C440000D4A0021284639F069FF0C4B23600C4B44
:10C45000221D21462846C4E9013939F0DDFE6979FB
:10C4600028684A462EF022FB082E04F11C04C0D195
:10C47000BDE8F88FF83A002040420F00E5AA030813
:10C48000413A030870B52B4C2B4B94F8C000C4F80C
:10C49000B83000220221C4E91E22C4F88020C4F86A
:10C4A000B420A4F8BC203AF035F9002841D0234B41
:10C4B0000668054603F1C0015A7C12B15A689642DB
:10C4C0002BD018338B42F7D1002394F8C00044F8E6
:10C4D0005C5C04F8683C3EF07DFE08B10223C3803A
:10C4E000297AFDF74DFA2846154A002139F016FF42
:10C4F000144A154944F8581C0026111F2846134BAE
:10C5000044F8543C44F8506C39F086FE6979286848
:10C510003246BDE870402EF0C9BA30464EF032FFC8
:10C52000328D0B4992B2531CB0FBF3F081F8380105
:10C53000CAE770BDF83A002000FFFF003C00001081
:10C5400040420F00A43A0020693A0308053C030862
:10C55000880100202DE9F04FDFF8748385B006468E
:10C560000D46CD48C022002155F0CBFA98F8C130D5
:10C570008BB9CA4CD4F82432002B00F08B800022F7
:10C58000012183F82C5083F82D101A6383F82E2094
:10C5900005B0BDE8F08F98F8C230002B00F089801C
:10C5A000BF4E96F87430012B00F0B280022B00F0E1
:10C5B0008E80DFF820C3B94C96F86A8096F866E062
:10C5C000BCE80F0004F5F87703970FC7BCE80F002D
:10C5D0000FC79CE80700B8F1000C18BF4FF0010C22
:10C5E000B04B84F828C2BEF1070F87E80700C4F8F3
:10C5F000083200F22D81BEF1040F00F23C81AA4BFB
:10C60000DFF894B202944FF000081C4645454FF005
:10C6100003013CDD14F801AB06EB0A030AF1010942
:10C6200093F86B705FFA89F938464A463AF072F827
:10C63000034638461F46002B00F014813EF0CAFD29
:10C64000CBF8140020B14FF00303837180F80790FA
:10C6500096F8672096F866305FFA88F1002A00F0B5
:10C66000FF80FA7982F0010200923846524608F1C2
:10C6700001084FF0EBF9002800F0F4804FF00103BF
:10C68000B8F1080F8BF811300BF1180BBED1DDE9B2
:10C690000243A7E0854E864D0FCE0FC50FCE0FC5C6
:10C6A00096E80700A5F1200385E80700C4F82432C6
:10C6B0006EE77B4B794C93F86820003A304618BF00
:10C6C00001222946FCF7E6FBC4F8240252E796F85B
:10C6D0006A30002B3FF46DAF96F86630082B17D107
:10C6E000DFF8F0C16D4CDFF8BCE1BCE80F0004F5E9
:10C6F000F87703970FC7BCE80F000FC79CE8070047
:10C70000012387E8070084F82832C4F808E2A3E090
:10C71000DFF8C4C1614C96F86AE0C4F82C52BCE85A
:10C720000F0004F5DE770FC7BCE80F000FC79CE8C9
:10C7300007000023BEEB030E87E8070018BF4FF089
:10C74000010E19465B4896F8663088F8FC304FF4C5
:10C750004C728A4684F828E288F8C41055F0D1F962
:10C76000514BDFF83491CDE9023504F50E7B554687
:10C77000D4F82C22AA4262DD029B13F8012B02930B
:10C78000324492F86B7038463AF04AF8824638469E
:10C790003EF020FD96F867200746002A52D09AF80E
:10C7A000072082F0010A0AF0010094F828320130D3
:10C7B00088F8C3000BB18AF0010A002F00F08E80C8
:10C7C000BB7993B1412B10D03B4B3C493C4AC4F858
:10C7D000D831039DC4F8D411012388F8C430C4F8BB
:10C7E000E0210023C4F82432C4E6B7F804C0CBF833
:10C7F0000C704001BCFA8CFC40F009000135CCF112
:10C800001F014FF00303CBF80410CBF814008BF892
:10C8100010A0FD71BB71014638463AF077F91AF065
:10C82000010F384611D03EF0A9FFDBF80C20C9F803
:10C830001420082D0BF1200B09F1180998D1039D44
:10C84000204BCFE79AF807A0ADE73EF09DFFECE75D
:10C85000BEF1080F7FF4D3AE1B4BC4F83032CEE6E6
:10C86000FA7901E7029C164B134AC4F81432C4F853
:10C870000C220023B6E796F86930144AC4F8302237
:10C88000012B05D0022B06BFB8FA88F35B09002301
:10C8900084F83432B3E600BF3C00001000110010F1
:10C8A000002A0020A58D0508762A0020F41C060821
:10C8B000C03B0020F83B0020414C0408454C0408D4
:10C8C000394C0408BC12001089DE0408B9DE0408E3
:10C8D000F83A0020201D06084C1D0608400140F0D3
:10C8E00009004FF0FF33CBF81400CBF80430CBF83D
:10C8F0000C708BF810A001358DE700BFF8B56D4CBA
:10C9000094F8400F94F8416F3EF064FC60B12D2321
:10C91000C380202105463AF0F9F80A203AF026FDB6
:10C92000284640F09FF920B9634FD7F83034DA0039
:10C9300000D5F8BD013E092EFBD894F83F5FD5B96C
:10C94000402033F031FB0028F3D090F9043094F804
:10C95000111F092BC8BF143B3B440A2993F83454D8
:10C9600000F09A8093F8403494F83E2F002A08BFD4
:10C970001D46002DDDD028463EF02CFC0546002843
:10C9800000F082802D23C38001213AF0BFF80121FD
:10C9900008463EF007FF2B68AA881A833C203AF02D
:10C9A0003DFF002101203EF0FDFE94F8413F002BA9
:10C9B0004BD000261FE02B68AA885A833AF0D6FC99
:10C9C00094F80A13D4F80C0301F001013EF0E2FEE2
:10C9D00094F80A13D4F81403C1F380013EF0DAFE90
:10C9E0002B68AA881A8378203AF0C0FC94F8413F5B
:10C9F00001369E4229DA94F80A13D4F80C03C9438D
:10CA000001F001013EF0C6FE94F80A13D4F81403B5
:10CA100081F00401C1F380013EF0BCFE7820002DBE
:10CA2000C9D178203AF0A2FC94F80A13D4F80C0388
:10CA300001F001013EF0AEFE94F80A13D4F814039D
:10CA4000C1F380013EF0A6FECDE794F83F3F9BB9CD
:10CA5000D4F8403F03F0FF13B3F5803F7FF469AF94
:10CA6000D7F8303413F080537FF463AF84F8413F3C
:10CA7000BDE8F84045F03CB932203AF0CFFE2846F8
:10CA800000213AF043F8E3E701213AF03FF80121B1
:10CA900008463EF087FE81E7D7F858345B057FF5FE
:10CAA00048AF09F00DFC00287FF443AF002D7FF460
:10CAB00062AF3EE7002A0020F83A002070B4344804
:10CAC00090F85C34A3F13001092958D800F25C4495
:10CAD000224600F26B4012F8015FA5F130010929EE
:10CAE00004D88242F7D1002070BC7047141B022C7E
:10CAF0004BDD2848002101E010F8013B01EB8101EA
:10CB000003EB4103161A303B022E044603F0FF01EB
:10CB1000F2DC214B03FB01F1A2424FF000030DD9DF
:10CB200003EB830314F8016B5B00303B3344A242F8
:10CB300003F0FF03F4D1194800FB03F32E2D06D0B8
:10CB40001748A0FB032301EB930070BC7047013230
:10CB500004200024157804EB8404303D6400092D82
:10CB6000A4B298BF641900F1FF309CBFA4B2013297
:10CB700010F0FF00EED1642202FB0433E0E7002155
:10CB80001D4600F25C420B46D8E7064C0021C3E785
:10CB9000F83A0020553F00208096980040420F0050
:10CBA000ABAAAAAA543F0020094BD3F86C04D3F8CF
:10CBB0007024D3F87434904202DC114602460846D1
:10CBC000984204DD9A42B8BF1A4610467047704733
:10CBD000F83A00200B6810B414681B1B03605468FB
:10CBE0004B681B1B43608B6892685DF8044B9B1A73
:10CBF0008360704738B504460D460A460068FF2139
:10CC000054F07FFF21682944216038BD2DE9F047A9
:10CC1000041E0D4612DB092C26DC824A0B46824894
:10CC2000A0FB0410C00800EB8000A4EB4000002132
:10CC3000125C1A7059702846BDE8F08764422D23B3
:10CC4000092C01F8013B24D8764A774BA3FB040357
:10CC5000DB0803EB8303A4EB43030020D35C4870A1
:10CC60000B702846BDE8F0876F4B632CA3FB0426AE
:10CC70004FEAD60621DC6B4A0B466B49A1FB060145
:10CC8000C90801EB8101A6EB4101515C03F8011BCE
:10CC9000C5E7654A632CA2FB04364FEAD60637D8AF
:10CCA000604A614BA3FB0603DB0803EB8303A6EB9F
:10CCB0004303D35C01F8013BC7E7A3FB0627B4F5A8
:10CCC0007A7F4FEAD7070DD2564A0B465649A1FB49
:10CCD0000701C90801EB8101A7EB4101515C03F891
:10CCE000011BCAE7A3FB072842F20F7294424FEAE6
:10CCF000D80836D84B4A0B464B49A1FB0801C90856
:10CD000001EB8101A8EB4101515C03F8011BDDE758
:10CD1000A2FB0637B4F57A7F4FEAD7070CD2414A17
:10CD2000414BA3FB0703DB0803EB8303A7EB4303A0
:10CD3000D35C01F8013BB4E7A2FB073842F20F7362
:10CD40009C424FEAD80821D8364A374BA3FB080348
:10CD5000DB0803EB8303A8EB4303D35C01F8013B3F
:10CD6000DEE7324AA3FB080994424FEAD90921D8E9
:10CD70002C4A0B462C49A1FB0901C90801EB810192
:10CD8000A9EB4101515C03F8011BB5E7274BA2FB5E
:10CD900008099C424FEAD90921D8224A224BA3FB19
:10CDA0000903DB0803EB8303A9EB4303D35C01F81E
:10CDB000013BCAE71E4AA3FB090394424FEAD30A88
:10CDC00021D80B461849174AA1FB0A01C90801EBF3
:10CDD0008101AAEB4101515C03F8011BCAE7144B26
:10CDE000A2FB09029C424FEAD20A13D80E4B0D4A0D
:10CDF000A3FB0A03DB0803EB8303AAEB4303D35C27
:10CE000001F8013BCAE70A22BAFBF2F044F0ACFF9A
:10CE10000346D7E70A22BAFBF2F044F0A5FF014629
:10CE2000E4E700BF14A80608CDCCCCCC9F86010057
:10CE30003F420F0083B50C461646054631F08CFB89
:10CE4000204631F089FB0021204B0846002E08BF08
:10CE50001E463EF0A7FC002101203EF0A3FC284620
:10CE60003BF006F9B0B1012100203EF09BFC2846C2
:10CE70003BF0F6F8074620463BF0F6F80028FAD0DB
:10CE8000394620463BF0F8F83846B04700210846BE
:10CE90003EF088FC20463BF0EBF80028DFD0012173
:10CEA00000203EF07FFC20463BF0DAF801462846A1
:10CEB00001913BF0D9F801990028F8D028463BF0C1
:10CEC000DBF8002108463EF06DFCC8E745D90308B1
:10CED000F0B50023C1E90033C1E902330B610268F8
:10CEE000DFF890C089B004ADC2F385572E4647FAEB
:10CEF00003F0C007344644BF13F80C0004F8010BDC
:10CF000003F1010348BF2646062BF0D1174CDFF88A
:10CF100068C0C2F303200023205C33708DF8180032
:10CF2000C2F305370DF1190647FA03F0C00734467E
:10CF300044BF13F80C0004F8010B03F1010348BFD0
:10CF40002646062BF0D100233370C2F3834406AB90
:10CF5000CDE90134084602F00F0305490095C2F3FC
:10CF600003124DF001FA09B0F0BD00BFACA80608ED
:10CF70003CA80608B4A80608A4A8060870B5094C81
:10CF8000D4F87824054662B10026D4F878042D211F
:10CF9000013640F0AFFCAE42F7DBBDE8704041F037
:10CFA0003FBF70BDF83A002030B583B04D1C0093F0
:10CFB00003688572C2729C690023A04703B030BD2C
:10CFC00003685B6C0BB102211847704770B51D4CAC
:10CFD0000968D4F880541C4ED4F87C44D6ED4F7ABE
:10CFE000DFED1A6A491B00EE901A0168F8EEE00ABC
:10CFF000091B60EEA70A00EE101A20EEA07AB8EE28
:10D00000C00A1C46A0EE007AB1EE400AF1EEC77AE3
:10D0100067EEA67AFCEEE77AC2ED007A4DF0BAF937
:10D020009FED0B7ADFED0B7AE0EE077AFDEEE77A03
:10D0300017EE902A002ABCBF02F50C42A0322260F3
:10D0400070BD00BFF83A0020880100202C7D8E3F83
:10D05000A00CB34500A00C4638B50F4C94F89B14B7
:10D0600001F03F018B1C024601F10A0584F8993456
:10D0700084F8965404F2944084F8972408311CF004
:10D0800067FC254485F8920494F896341C44000A01
:10D0900084F8930438BD00BFF83A002038B50B4C33
:10D0A000002501228021204632F06AFF30B194F938
:10D0B000040032F099FF08B1006838BD0135062D33
:10D0C00004F10C04EDD10020F7E700BFB43F0020CD
:10D0D00038B5041F00F1080554F8043FD81780EA5A
:10D0E000430017F019FCA542F6D138BDF8B5C94C7C
:10D0F000DFEDC97A94EDCE7A94F8A033B4F8A27338
:10D100002DED028BB8EE478A28EE278A002B5FD1DF
:10D11000D4F8AC3394F8BD23002B40F30E8107EE16
:10D12000902A9FEDBE6ADFEDBE6AF8EEE77AB7EEB1
:10D13000007AA7EE867AF0EE477A07EE103AF8EE1C
:10D14000C78AB7EE087A87EE270AC6EEA87A20EEDD
:10D15000270A53F0D1F90F28B8BF0F2094F8A13354
:10D1600085B2A4F8A253002B00F04781AF4234D01F
:10D17000B4F8A4339FEDAB6A94F83C6307EE103A21
:10D1800007EE905AB8EE477AF8EE677AC6EE076A6D
:10D1900086EE277A76EE887A37EE087AC8EE276A26
:10D1A000C8EE077AB6B394F8A633B4F8A853C4ED22
:10D1B000D37AC4EDD77AC4EDDB7AC4EDDF6AC4ED6F
:10D1C000E37AC4EDE77A002B5BD0BDEC028BF8BDAF
:10D1D00094F8A133002B00F0858094F83C63002E76
:10D1E00040F00381B4F8A433DFED8E6A07EE907A45
:10D1F00007EE103AB8EE676AB8EE477AC6EE877A5D
:10D2000086EE867A77EE887A37EE087AC8EE276A55
:10D21000C8EE077A94F8A663B4F8A8530023C4F8BC
:10D220004033C4F84433C4F84833C4F85033C4F826
:10D230005433C4F85833C4F86033C4F86433C4F8C2
:10D240006833C4EDD37AC4EDD77AC4EDDB7AC4ED8C
:10D25000DF6AC4EDE37AC4EDE77AC4F87033C4F84A
:10D260007433C4F87833C4F88033C4F88433C4F812
:10D270008833C4F89033C4F89433C4F89833002E3C
:10D2800066D1D4F8AC3394F8BD23002B40F38E80E4
:10D2900007EE902A9FED616ADFED616AF8EEE77AAA
:10D2A000B7EE007AA7EE867A07EE903AF8EEE77AC4
:10D2B000B7EE086A86EE070A86EEA77A20EE070A1E
:10D2C00053F01AF90F28B8BF0F2080B2A4F8A803B2
:10D2D000002E3CD0A8423FF478AF00286DD1BDECC1
:10D2E000028BF8BDD4F8AC3394F8BE23002B40F386
:10D2F000878007EE903AF8EEE78A3D4607EE902ADF
:10D300009FED466ADFED466AF8EEE77AB7EE007AFF
:10D31000A7EE867AF0EE477AB7EE087A87EE270A0C
:10D32000C6EEA87A20EE270A53F0E6F80F28B8BF19
:10D330000F2080B2A4F8A40318E794F8A1330F25B6
:10D34000A4F8A253002B7FF411AF2846F2E705465C
:10D3500094F8BC3384F8F936002D3FF436AF07EE6D
:10D36000905A9FED306AD4EDF06A2F4BF8EE677A51
:10D37000BDEC028B86EE277A1946002241F8042B79
:10D38000012084F8F8060A609A601A615A619A616D
:10D390001A625A629A6237EE267AC6EE877AC3ED2F
:10D3A000037AC3ED077AC3ED0B7AF8BD0F20A4F81A
:10D3B000A80346B30F2D3FF408AF07EE900A9FED88
:10D3C000196AD4EDF06A194AF8EE677ABDEC028B5F
:10D3D00086EE277A37EE267AC6EE877AC2ED007A95
:10D3E000C2ED087AC2ED047AF8BD94F8A633B4F819
:10D3F000A853002B7FF4E9AE43E794F8BE237DE702
:10D400003D460F2096E794F8BC3384F8F93605467C
:10D41000A5E700BF00110010BD378635CDCCCC3D4F
:10D42000002474494E2DA63DC8170010D4170010D3
:10D43000F8B5214C1D270E46054684F808751CF0EA
:10D44000ADFB00201CF04CFB08201CF049FB0E201B
:10D450001CF046FB38461CF043FB04201CF040FB4C
:10D4600004201CF03DFB00201CF03AFB30201CF097
:10D4700037FB00201CF034FB30461CF031FB002051
:10D480001CF02EFB1CF076FB04F209501CF07CFA19
:10D49000234670B194F8092562B994F80A25302A18
:10D4A00000D03AB993F80B2522B993F80C352B70BC
:10D4B0000120F8BD0120FCE7F83A0020114B10B51F
:10D4C0000446185C10F0D0FC0F4800EB8404D4ED47
:10D4D000007AFDEEE77A0A2317EE901AB1F5FA6F9B
:10D4E000A8BF4FF4FA61B1F57A7FB8BF4FF47A71F3
:10D4F000A1F57A71BDE81040B1FBF3F10920C9B282
:10D5000010F0E0BC8CA80608144000201D4991F8DA
:10D510005C24A2B3F0B400260546334630463746B5
:10D520001BB991F85C442D2C23D02E2A19D0CA188F
:10D5300000EB800092F85C44A4F13002092A4FEA23
:10D5400040009CBFA0F13002A0180E2B14D801336C
:10D55000CA1892F85C24002AE2D106B14042F0BC1D
:10D5600070470133002DF8D0CA182A4482F85C7441
:10D57000DDE701231E46EBE70020F0BC70470020EA
:10D58000704700BFF83A00202DE9F0410C4F01240C
:10D59000A0231825E6B2FF2B0BDCC5F11B0103F11C
:10D5A0000108D7F86405DBB23246C9B2FFF7FCFCCC
:10D5B0004346013DEFD10134052CEAD1BDE8F081AD
:10D5C000F83A00201FB503AC8DF80C30009400230E
:10D5D0008DF80D3009F034FD04B010BD10B5FCF726
:10D5E000CBF91121044639F091FA20463EF0C6F8F5
:10D5F000C8203AF013F92046BDE810403EF0C4B808
:10D6000008B535203DF0E6FD054BC3F8680508B1C7
:10D610002A23C380BDE80840402139F077BA00BF13
:10D62000F83A0020704700BF704700BF704700BF46
:10D63000704700BF037870B4FBB10446C0F1010627
:10D64000A31914F8015FDBB2002DF9D101335B009F
:10D65000DCB2032513800C704D7004785CB102239A
:10D6600000255A1CD2B2CC548D5410F8014F02330D
:10D67000DBB2002CF5D170BC704702242346E8E7EA
:10D6800010B5044C04480A462146FFF7D3FF204654
:10D6900010BD00BF644000204CA8060810B5044C23
:10D6A00004480A462146FFF7C5FF204610BD00BFCB
:10D6B000644000205CA8060810B5044C04480A46E3
:10D6C0002146FFF7B7FF204610BD00BF6440002091
:10D6D00068A8060810B5044C04480A462146FFF71E
:10D6E000A9FF204610BD00BF6440002074A80608B2
:10D6F00010B5044C04480A462146FFF79BFF20461C
:10D7000010BD00BF6440002080A8060870B501F07D
:10D710007F0505EB850400EBC404282101FB05010E
:10D720000126C4F830310023C4E94A2284F81C5190
:10D7300084F81D61C4F8343101F58E711DB9FAF712
:10D74000FFFF002070BDFBF76FF8002070BD00BF29
:10D7500070B50D4B0D4D0E4AC3F86C26044603F20E
:10D760006C6283F8781600260D23812105F8906CF1
:10D77000FFF7CCFF2046A5F18C021F23BDE87040C7
:10D780000121FBF709B900BFF83A0020002A002068
:10D79000555342532DE9F043B04DB14C15F87D3C43
:10D7A000C4F87C0685B089465A2B00F2B780DFE8C2
:10D7B00013F0CA00B500B500DA00B500B500B50039
:10D7C000B500B500B500B500B500B500B500B500B1
:10D7D000B500B500B5000D01B500B500B500B50048
:10D7E000B500B500B50031017400B500B500740096
:10D7F000B500B500B500B500B901B5006101B500CF
:10D80000B5007C00B5000B02B500B500B500B50051
:10D810005B00B500B500B500B500B500B500B500BA
:10D82000B500B500B500B500B500B500B500B50050
:10D83000B500B500B500B500B500B500B500B50040
:10D84000B500B500B500B500B500B500B500B50030
:10D85000B500B500B500B500B500B500B500B50020
:10D86000B500B500B500E60115F87C3C9B0700F15A
:10D870006B8235F8763C55F87B2CD4F888165BBA69
:10D880009BB212BAD0188842C4F89036C4F88C26DD
:10D8900003D9FAF771FD002852DB0020A4F88006B6
:10D8A0000646304605B0BDE8F08315F8903C002BE5
:10D8B00040F0FE8015F9803C002B2FDA55F8283C0B
:10D8C00008469B689847002840F0208235F8766C1F
:10D8D00055F87B2CD4F8883676BAB6B212BA9019BD
:10D8E0009842C4F89066C4F88C2605D90192FAF7DC
:10D8F00043FD0028019A23DBD4F8843655F8847C54
:10D9000003FB06F603FB02F20220BE42C4F88C269B
:10D91000C4F8906605F8900C00F0D08015F8C03C73
:10D920005A1CD2B205EBC30305204FF40051042A60
:10D9300005F8C02C03F8BC0C43F8B81C00F0A48117
